:100000000C9435000C945D000C945D000C945D0024
:100010000C945D000C945D000C945D000C945D00EC
:100020000C945D000C945D000C945D000C945D00DC
:100030000C945D000C945D000C945D000C945D00CC
:100040000C9462050C945D000C9430050C940A0528
:100050000C945D000C945D000C945D000C945D00AC
:100060000C945D000C945D00AC0511241FBECFEF15
:10007000D8E0DEBFCDBF11E0A0E0B1E0E2EAF1E1FF
:1000800002C005900D92A833B107D9F727E0A8E385
:10009000B1E001C01D92A431B207E1F710E0C5E361
:1000A000D0E004C02197FE010E94B508C433D107F7
:1000B000C9F70E94E8050C94CF080C94000020E0DA
:1000C000DC0160FF03C001C02D932D936250E0F767
:1000D0007040D0F7089580E991E00895AF92BF9203
:1000E000CF92DF92EF92FF920F931F93CF93DF9304
:1000F0006C017B018B01040F151FEB015E01AE1833
:10010000BF08C017D10759F06991D601ED91FC9154
:100110000190F081E02DC6010995892B79F7C50181
:10012000DF91CF911F910F91FF90EF90DF90CF90D3
:10013000BF90AF900895FC01538D448D252F30E082
:10014000842F90E0821B930B541710F0CF960895E4
:1001500001970895FC01918D828D981761F0A28D11
:10016000AE0FBF2FB11D5D968C91928D9F5F9F73D7
:10017000928F90E008958FEF9FEF0895FC01918D8D
:10018000828D981731F0828DE80FF11D858D90E0FA
:1001900008958FEF9FEF0895FC01918D228D892F97
:1001A00090E0805C9F4F821B91098F73992708957F
:1001B0008AE696E00E94CC0021E0892B09F420E039
:1001C000822F089580E090E0892B29F00E94D800CA
:1001D00081110C9400000895FC01A48DA80FB92F83
:1001E000B11DA35ABF4F2C91848D90E001968F735F
:1001F0009927848FA689B7892C93A089B1898C917E
:10020000837080648C93938D848D981306C00288CC
:10021000F389E02D80818F7D80830895EF92FF9296
:100220000F931F93CF93DF93EC0181E0888F9B8D19
:100230008C8D98131AC0E889F989808185FF15C0D3
:100240009FB7F894EE89FF896083E889F9898081F6
:100250008370806480839FBF81E090E0DF91CF91C5
:100260001F910F91FF90EF900895F62E0B8D10E0E7
:100270000F5F1F4F0F731127E02E8C8D8E110CC056
:100280000FB607FCFACFE889F989808185FFF5CFA1
:10029000CE010E94EC00F1CFEB8DEC0FFD2FF11D94
:1002A000E35AFF4FF0829FB7F8940B8FEA89FB89DE
:1002B00080818062CFCFCF93DF93EC01888D88233C
:1002C000B9F0AA89BB89E889F9898C9185FD03C0B9
:1002D000808186FD0DC00FB607FCF7CF8C9185FF9E
:1002E000F2CF808185FFEDCFCE010E94EC00E9CFF7
:1002F000DF91CF9108953FB7F89480913B019091A1
:100300003C01A0913D01B0913E0126B5A89B05C0DE
:100310002F3F19F00196A11DB11D3FBFBA2FA92F84
:10032000982F8827BC01CD01620F711D811D911D81
:1003300042E0660F771F881F991F4A95D1F70895ED
:100340000F931F93CF93DF93209139012F5F322FAB
:1003500037703093390120FF2BC020E831FD206435
:10036000347009F02062205FFC01EC01239600E06C
:1003700011E06485662329F070E0C8010E945908E5
:100380006F5F6187322F369F030E30E0311D1124DD
:10039000311110C01682662311F0615061873196C9
:1003A000EC17FD0731F7DF91CF911F910F91089561
:1003B00020E0D4CF31503683EECF4F925F927F92C0
:1003C0008F929F92AF92BF92CF92DF92EF92FF9265
:1003D0000F931F93CF93DF932C01EB010E947B01BE
:1003E000F20127853089621B730B6A307105B0F307
:1003F000F8948A819B81181619060CF0CBC1E8810C
:10040000F9810BB100647BB17F7B7BB9BA848F81AA
:100410002B2D281B822F2F834F85042E000C550B6C
:10042000AA81BB81ED84DC84CE84E394D394C3940D
:100430009E81388599848B84118120E0F32E622F70
:10044000322F3181112788943111380F08F43FEF92
:1004500081958894E0FC130F17958894E1FC130FA5
:1004600017958894E2FC130F17958894E3FC130FFB
:1004700017958894E4FC130F17958894E5FC130FE7
:1004800017958894E6FC130F17958894E7FC130FD3
:1004900017958894232FE110212F8B0D122F002CFC
:1004A0000BB900C017FF7BB930812227889400C0A8
:1004B00000C0002C7BB93111390F00C0002C0BB9E2
:1004C00000C016FF7BB908F43FEF9195889400C0F7
:1004D00000C0002C7BB9D0FC230F00C0002C0BB94E
:1004E00000C015FF7BB927958894D1FC230F00C06D
:1004F00000C0002C7BB92795889400C0002C0BB954
:1005000000C014FF7BB9D2FC230F2795889400C04C
:1005100000C0002C7BB9D3FC230F00C0002C0BB90A
:1005200000C013FF7BB927958894D4FC230F00C02B
:1005300000C0002C7BB92795889400C0002C0BB913
:1005400000C012FF7BB9D5FC230F2795889400C00B
:1005500000C0002C7BB9D6FC230F00C0002C0BB9C7
:1005600000C011FF7BB927958894D7FC230F00C0EA
:1005700000C0002C7BB92795889400C0002C0BB9D3
:1005800000C010FF7BB9132FD110122F990D00C09E
:1005900000C0002C7BB900C000C0002C0BB900C00B
:1005A00017FF7BB932812227889400C000C0002C3D
:1005B0007BB931113F0D00C0002C0BB900C016FFF4
:1005C0007BB908F43FEFE40FF51F00C000C0002C1A
:1005D0007BB9C0FC230F00C0002C0BB900C015FF75
:1005E0007BB927958894C1FC230F00C000C0002C64
:1005F0007BB92795889400C0002C0BB900C014FF6C
:100600007BB9C2FC230F2795889400C000C0002C42
:100610007BB9C3FC230F00C0002C0BB900C013FF33
:100620007BB927958894C4FC230F00C000C0002C20
:100630007BB92795889400C0002C0BB900C012FF2D
:100640007BB9C5FC230F2795889400C000C0002CFF
:100650007BB9C6FC230F00C0002C0BB900C011FFF2
:100660007BB927958894C7FC230F00C000C0002CDD
:100670007BB92795889400C0002C0BB900C010FFEF
:100680007BB9132FC110122FF19400C000C0002CB1
:100690007BB9F80C00C000C00BB900C017FF7BB9D4
:1006A00031812227889400C000C0002C7BB9311111
:1006B000380F00C0002C0BB900C016FF7BB908F43E
:1006C0003FEF8195889400C000C0002C7BB9E0FC0E
:1006D000230F00C0002C0BB900C015FF7BB9279574
:1006E0008894E1FC230F00C000C0002C7BB9279543
:1006F000889400C0002C0BB900C014FF7BB9E2FC49
:10070000230F2795889400C000C0002C7BB9E3FC20
:10071000230F00C0002C0BB900C013FF7BB9279535
:100720008894E4FC230F00C000C0002C7BB92795FF
:10073000889400C0002C0BB900C012FF7BB9E5FC07
:10074000230F2795889400C000C0002C7BB9E6FCDD
:10075000230F00C0002C0BB900C011FF7BB92795F7
:100760008894E7FC230F00C000C0002C7BB92795BC
:10077000889400C0002C0BB900C010FF7BB9132F68
:10078000E110122F8B0D00C000C0002C7BB9119717
:1007900009F086CE4A815B8120EE31E0DA010E94C9
:1007A0008F08DC01CB01F4E0B695A7959795879566
:1007B000FA95D1F730E020E0B901EAE94E9F040E46
:1007C000611D5E9F600D711D1124650F711D860FE7
:1007D000971FA11DB11D893E43E09407A105B105F6
:1007E00008F434C0885E9340A109B10942E0B6958F
:1007F000A795979587954A95D1F747E0849F080E6E
:10080000211D949F200D311D1124290F311D609150
:10081000380170E0860F971F820F931F40915A0195
:1008200050915B0160915C0170915D01292F33272C
:10083000420F531F611D711D40935A0150935B017C
:1008400060935C0170935D018093380178940E94FD
:100850007B01F201708B6787DF91CF911F910F9120
:10086000FF90EF90DF90CF90BF90AF909F908F90D0
:100870007F905F904F90089581E090E00895569AA0
:1008800008956F927F928F92CF92DF92EF92FF92B4
:100890000F931F93CF93DF93CDB7DEB762970FB659
:1008A000F894DEBF0FBECDBF6C017A013801822EF5
:1008B000DC011C962C91CA0157FF04C08827992798
:1008C000841B950B7A8369839C838B839E838D83A2
:1008D0006D867E868F86213049F5CE0101960E9475
:1008E000A00183E0888B1A8A198AF7FE02C08DEF77
:1008F000888BD601ED91FC910684F785E02DBE0131
:100900006F5F7F4FC601099562960FB6F894DEBF00
:100910000FBECDBFDF91CF911F910F91FF90EF9050
:10092000DF90CF908F907F906F9008951C861B86EC
:100930001A86198618861F82D4CFEF92FF920F93E2
:100940001F93CF93DF93CDB7DEB762970FB6F894BE
:10095000DEBF0FBECDBF7C01DC011C968C917A837B
:1009600069835C834B835E834D830D871E872F874E
:100970008130F9F4CE0101960E94A001188A1A8AEA
:10098000198AD701ED91FC910684F785E02DBE010F
:100990006F5F7F4FC701099562960FB6F894DEBF6F
:1009A0000FBECDBFDF91CF911F910F91FF90EF90C0
:1009B00008951C861B861A86198618861F82DECF2C
:1009C00090E080E00895FC018585968508950F9359
:1009D0001F93CF93DF9300D01F92CDB7DEB7AB014B
:1009E00019821A821B82DC01ED91FC910190F08149
:1009F000E02D00E010E020E0BE016F5F7F4F099521
:100A00000F900F900F90DF91CF911F910F9108954C
:100A10000E94CA081F920F920FB60F9211242F93B3
:100A20003F934F935F936F937F938F939F93AF9376
:100A3000BF93EF93FF938AE696E00E94EC00FF914C
:100A4000EF91BF91AF919F918F917F916F915F9146
:100A50004F913F912F910F900FBE0F901F901895BF
:100A60001F920F920FB60F9211242F938F939F9383
:100A7000EF93FF93E0917A06F0917B068081E091FD
:100A80008006F091810682FD1BC0908180918306D3
:100A90008F5F8F7320918406821741F0E091830667
:100AA000F0E0E659F94F958F80938306FF91EF911F
:100AB0009F918F912F910F900FBE0F901F901895BF
:100AC0008081F4CF1F920F920FB60F9211242F93B3
:100AD0003F938F939F93AF93BF9380915A019091CF
:100AE0005B01A0915C01B0915D0130913A0123E07E
:100AF000230F2D3758F50196A11DB11D20933A0102
:100B000080935A0190935B01A0935C01B0935D01C7
:100B100080913B0190913C01A0913D01B0913E013B
:100B20000196A11DB11D80933B0190933C01A093C0
:100B30003D01B0933E01BF91AF919F918F913F9145
:100B40002F910F900FBE0F901F90189526E8230F3E
:100B50000296A11DB11DD2CFEAE6F6E01382128201
:100B600088EE93E0A0E0B0E084839583A683B7830A
:100B70008AE291E09183808385EC90E09587848779
:100B800084EC90E09787868780EC90E0918B808B57
:100B900081EC90E0938B828B82EC90E0958B848B40
:100BA00086EC90E0978B868B118E128E138E148EAE
:100BB000E7E0F7E08FEF80831282118214861386BC
:100BC0008FEF9FEFDC0187839087A187B28708951D
:100BD000CF93DF9300D01F92CDB7DEB7789484B562
:100BE000826084BD84B5816084BD85B5826085BD29
:100BF00085B5816085BD80916E00816080936E00B7
:100C000010928100809181008260809381008091A8
:100C10008100816080938100809180008160809359
:100C200080008091B10084608093B1008091B00019
:100C300081608093B00080917A00846080937A0014
:100C400080917A00826080937A0080917A0081603E
:100C500080937A0080917A00806880937A00109265
:100C6000C100E0917A06F0917B0682E08083E091FA
:100C70007606F09177061082E0917806F091790679
:100C80008FEC808310928206E0917E06F0917F06C1
:100C900086E08083E0917C06F0917D068081806112
:100CA0008083E0917C06F0917D068081886080835E
:100CB000E0917C06F0917D06808180688083E091E0
:100CC0007C06F0917D0680818F7D8083809152012A
:100CD000811145C010924401109243018FEF80931F
:100CE0004701809348018093490180934A01809392
:100CF0004B0180934C0181E080934D0110924F0194
:100D000010924E01109246011092450180916401AB
:100D100090916501892B31F481E491E09093650114
:100D200080936401E0913F01F0914001309721F000
:100D300081E491E09583848381E491E09093400184
:100D400080933F01109251011092500186E191E091
:100D5000909342018093410181E080935201569A21
:100D60008AE693E0909344018093430180E091E010
:100D700090934F0180934E0180910A0790910B0749
:100D8000A0910C07B0910D07843C29E09207A105C2
:100D9000B10520F484EC99E0A0E0B0E080930A076C
:100DA00090930B07A0930C07B0930D078AE08093F4
:100DB0000707009164011091650101151105A9F063
:100DC000D80112968D919C911397009751F01D9622
:100DD0002D913C91B901660F771F620F731F0E941E
:100DE0005F00F80104811581E8CF8AE691E09C015B
:100DF00062E070E050E040E0FA01EE0FFF1FE20F0A
:100E0000F31F718360834F5F5F4F40315105A1F73E
:100E1000205E3F4FF3E02A363F0761F74AE653E092
:100E20001FEF00E8FA0130E020E0D901AA0FBB1F54
:100E3000A80FB91F6D917C916115710519F410828D
:100E4000118206C06130710509F0B9C010820183BA
:100E500012822F5F3F4F33962031310531F7405DCD
:100E60005F4F809623E08A369207E1F6D09007071D
:100E700080910A0790910B07A0910C07B0910D0784
:100E8000892B8A2B8B2BD9F00E947B010091660164
:100E9000109167012091680130916901601B710B0D
:100EA000820B930B00910A0710910B0720910C07FE
:100EB00030910D076017710782079307C8F20E94EF
:100EC0007B01609366017093670180936801909342
:100ED0006901E0911207F0911307309759F04091A2
:100EE0000E0750910F0760911007709111078D2D1B
:100EF0000995D82EE0906401F09065014D2C512C9D
:100F0000712C612CE114F10409F45FC0D7011C9627
:100F1000CC901C9780910807909109078436910521
:100F200010F41C961C92D701ED91FC91A280B38025
:100F300019821A821B82DD2079F1F701369610E0C2
:100F400000E02191222319F19280992001F130E0F3
:100F500050E040E02F5F3F4F4F4F5F4FC301B20162
:100F60000E9449089B01AC01892D90E0B0E0A0E00F
:100F7000BC01CD016F5F7F4F8F4F9F4F0E9449088B
:100F8000A1E0B0E0AC0FBD1FA00FB11F8C930F5FAD
:100F90001F4F03301105A9F609811A812B81F70132
:100FA0004585568562817381C701F5010995D70191
:100FB0001C96CC921C971496ED90FC90A3CF6230B7
:100FC000710509F046CF10833BCF8091620190916B
:100FD00063019C012F5F3F4F3093630120936201B7
:100FE00049970CF44AC08FB7F89420915A01309178
:100FF0005B0140915C0150915D018FBF80915E016A
:1010000090915F01A0916001B0916101281B390BA3
:101010004A0B5B0B21F421E030E040E050E0E0912E
:101020006201F091630188EE93E0E89FB001E99FCF
:10103000700DF89F700D1124072E000C880B990B72
:101040000E946D08309309072093080710926301EE
:10105000109262012FB7F89480915A0190915B0130
:10106000A0915C01B0915D012FBF80935E019093D0
:101070005F01A0936001B093610100E010E00115F1
:101080001105E9F30E94D8008823C9F30E940000EB
:10109000F6CFDB018F939F930E949608BF91AF918B
:1010A000A29F800D911DA39F900DB29F900D1124C2
:1010B000089597FB072E16F4009407D077FD09D00A
:1010C0000E94A10807FC05D03EF4909581959F4FA2
:1010D0000895709561957F4F0895A1E21A2EAA1B7D
:1010E000BB1BFD010DC0AA1FBB1FEE1FFF1FA217D8
:1010F000B307E407F50720F0A21BB30BE40BF50BD5
:10110000661F771F881F991F1A9469F7609570955D
:10111000809590959B01AC01BD01CF0108950E947F
:10112000BB08B7FF0895821B930B08950E94BB086C
:10113000A59F900DB49F900DA49F800D911D11242B
:101140000895AA1BBB1B51E107C0AA1FBB1FA6170E
:10115000B70710F0A61BB70B881F991F5A95A9F760
:1011600080959095BC01CD010895EE0FFF1F05906D
:10117000F491E02D0994A29FB001B39FC001A39FF9
:10118000700D811D1124911DB29F700D811D1124C0
:10119000911D089581E090E0F8940C94CF08F894A4
:0211A000FFCF7F
:1011A20000000000080508050805E704E3043C0404
:1011B200E004000000009D0441043F04E704E3044E
:1011C2003C046B00DD01000000000E016E009B007C
:0811D2005B01CC00AA00BE0085
:00000001FF
