:020000040000FA
:100000000C9435000C945D000C945D000C945D0024
:100010000C945D000C945D000C945D000C945D00EC
:100020000C945D000C945D000C945D000C945D00DC
:100030000C945D000C945D000C945D000C945D00CC
:100040000C94BF060C945D000C942F070C940907C8
:100050000C945D000C945D000C945D000C945D00AC
:100060000C945D000C945D00610711241FBECFEF5E
:10007000D8E0DEBFCDBF11E0A0E0B1E0E4E0F6E102
:1000800002C005900D92AE33B107D9F728E0AEE378
:10009000B1E001C01D92AF31B207E1F710E0C5E356
:1000A000D0E004C02197FE010E94F50AC433D107B5
:1000B000C9F70E949D070C94000B0C94000020E0EF
:1000C000DC0160FF03C001C02D932D936250E0F767
:1000D0007040D0F708953FB7F894809171079091E0
:1000E0007207A0917307B091740726B5A89B05C04D
:1000F0002F3F19F00196A11DB11D3FBFBA2FA92FA7
:10010000982F8827BC01CD01620F711D811D911DA3
:1001100042E0660F771F881F991F4A95D1F708950F
:100120008F929F92AF92BF92CF92DF92EF92FF9207
:100130000E946B004B015C0188EEC82E83E0D82E34
:10014000E12CF12C0E946B00681979098A099B093E
:10015000683E734081059105A8F321E0C21AD108D9
:10016000E108F10888EE880E83E0981EA11CB11CFE
:10017000C114D104E104F10429F7FF90EF90DF905E
:10018000CF90BF90AF909F908F90089580E991E0BD
:100190000895AF92BF92CF92DF92EF92FF920F93AA
:1001A0001F93CF93DF936C017B018B01040F151F0D
:1001B000EB015E01AE18BF08C017D10759F0699175
:1001C000D601ED91FC910190F081E02DC6010995D9
:1001D000892B79F7C501DF91CF911F910F91FF9086
:1001E000EF90DF90CF90BF90AF900895FC01538DBA
:1001F000448D252F30E0842F90E0821B930B541701
:1002000010F0CF96089501970895FC01918D828D8D
:10021000981761F0A28DAE0FBF2FB11D5D968C9126
:10022000928D9F5F9F73928F90E008958FEF9FEF65
:100230000895FC01918D828D981731F0828DE80F21
:10024000F11D858D90E008958FEF9FEF0895FC01DB
:10025000918D228D892F90E0805C9F4F821B9109A8
:100260008F739927089585E797E00E94270121E081
:10027000892B09F420E0822F089580E090E0892BFB
:1002800029F00E94330181110C9400000895FC01B3
:10029000A48DA80FB92FB11DA35ABF4F2C91848DE7
:1002A00090E001968F739927848FA689B7892C9344
:1002B000A089B1898C91837080648C93938D848D97
:1002C000981306C00288F389E02D80818F7D80839A
:1002D0000895EF92FF920F931F93CF93DF93EC015A
:1002E00081E0888F9B8D8C8D98131AC0E889F989DD
:1002F000808185FF15C09FB7F894EE89FF896083E0
:10030000E889F98980818370806480839FBF81E060
:1003100090E0DF91CF911F910F91FF90EF900895A2
:10032000F62E0B8D10E00F5F1F4F0F731127E02E7D
:100330008C8D8E110CC00FB607FCFACFE889F989B5
:10034000808185FFF5CFCE010E944701F1CFEB8D73
:10035000EC0FFD2FF11DE35AFF4FF0829FB7F89489
:100360000B8FEA89FB8980818062CFCFCF93DF93A7
:10037000EC01888D8823B9F0AA89BB89E889F989BD
:100380008C9185FD03C0808186FD0DC00FB607FCF2
:10039000F7CF8C9185FFF2CF808185FFEDCFCE0125
:1003A0000E944701E9CFDF91CF9108950F931F93EA
:1003B000CF93DF93209149012F5F322F3770309315
:1003C000490120FF2BC020E831FD2064347009F082
:1003D0002062205FFC01EC01239600E011E06485BF
:1003E000662329F070E0C8010E94C60A6F5F61872A
:1003F000322F369F030E30E0311D1124311110C011
:100400001682662311F0615061873196EC17FD0763
:1004100031F7DF91CF911F910F91089520E0D4CF54
:1004200031503683EECF4F925F927F928F929F92A0
:10043000AF92BF92CF92DF92EF92FF920F931F93F2
:10044000CF93DF932C01EB010E946B00F201278513
:100450003089621B730B6A307105B0F3F8948A819E
:100460009B81181619060CF0CDC1E881F9816BB19A
:10047000862E689486F83BB13F7B3BB9DA848F8146
:100480002D2D281B822F2F834F85042E000C550BFA
:10049000AA81BB817D85FC84EE847F5FF394E39425
:1004A0009E819884B984AB841181C12C6C2D0C2D54
:1004B0002C2D2181112788942111280F08F42FEF6A
:1004C0008195889470FD120F1795889471FD120F15
:1004D0001795889472FD120F1795889473FD120F6B
:1004E0001795889474FD120F1795889475FD120F57
:1004F0001795889476FD120F1795889477FD120F43
:1005000017958894622F7111612F8D0D162F002C75
:100510008BB800C000C017FF3BB9208166278894C4
:1005200000C0002C3BB92111290F00C0002C8BB852
:1005300000C000C016FF3BB908F42FEF91958894D6
:1005400000C0002C3BB9F0FC620F00C0002C8BB83F
:1005500000C000C015FF3BB967958894F1FC620F9D
:1005600000C0002C3BB96795889400C0002C8BB864
:1005700000C000C014FF3BB9F2FC620F679588947D
:1005800000C0002C3BB9F3FC620F00C0002C8BB8FC
:1005900000C000C013FF3BB967958894F4FC620F5C
:1005A00000C0002C3BB96795889400C0002C8BB824
:1005B00000C000C012FF3BB9F5FC620F679588943C
:1005C00000C0002C3BB9F6FC620F00C0002C8BB8B9
:1005D00000C000C011FF3BB967958894F7FC620F1B
:1005E00000C0002C3BB96795889400C0002C8BB8E4
:1005F00000C000C010FF3BB9122FF110162F9B0D49
:1006000000C0002C3BB900C000C0002C8BB800C05B
:1006100000C017FF3BB922816627889400C0002CD8
:100620003BB92111290D00C0002C8BB800C000C0BF
:1006300016FF3BB908F42FEFE40FF51F00C0002CA4
:100640003BB9E0FC620F00C0002C8BB800C000C0BA
:1006500015FF3BB967958894E1FC620F00C0002C40
:100660003BB96795889400C0002C8BB800C000C0CF
:1006700014FF3BB9E2FC620F6795889400C0002C20
:100680003BB9E3FC620F00C0002C8BB800C000C077
:1006900013FF3BB967958894E4FC620F00C0002CFF
:1006A0003BB96795889400C0002C8BB800C000C08F
:1006B00012FF3BB9E5FC620F6795889400C0002CDF
:1006C0003BB9E6FC620F00C0002C8BB800C000C034
:1006D00011FF3BB967958894E7FC620F00C0002CBE
:1006E0003BB96795889400C0002C8BB800C000C04F
:1006F00010FF3BB9122FE110162F919400C0002C6F
:100700003BB99A0C00C000C08BB800C000C017FFF6
:100710003BB921816627889400C0002C3BB9211188
:10072000280F00C0002C8BB800C000C016FF3BB9DA
:1007300008F42FEF8195889400C0002C3BB970FD20
:10074000620F00C0002C8BB800C000C015FF3BB981
:100750006795889471FD620F00C0002C3BB96795C6
:10076000889400C0002C8BB800C000C014FF3BB9B7
:1007700072FD620F6795889400C0002C3BB973FD31
:10078000620F00C0002C8BB800C000C013FF3BB943
:100790006795889474FD620F00C0002C3BB9679583
:1007A000889400C0002C8BB800C000C012FF3BB979
:1007B00075FD620F6795889400C0002C3BB976FDEB
:1007C000620F00C0002C8BB800C000C011FF3BB905
:1007D0006795889477FD620F00C0002C3BB9679540
:1007E000889400C0002C8BB800C000C010FF3BB93B
:1007F000122F7111162F8D0D00C0002C3BB91197CF
:1008000009F086CE4A815B8120EE31E0DA010E9458
:10081000DA0ADC01CB01F4E0B695A79597958795A8
:10082000FA95D1F730E020E0B901EAE94E9F040ED5
:10083000611D5E9F600D711D1124650F711D860F76
:10084000971FA11DB11D893E43E09407A105B10585
:1008500008F434C0885E9340A109B10942E0B6951E
:10086000A795979587954A95D1F747E0849F080EFD
:10087000211D949F200D311D1124290F311D6091E0
:10088000480170E0860F971F820F931F40916D07FC
:1008900050916E0760916F0770917007292F332771
:1008A000420F531F611D711D40936D0750936E07DA
:1008B00060936F07709370078093480178940E944B
:1008C0006B00F201708B6787DF91CF911F910F91C1
:1008D000FF90EF90DF90CF90BF90AF909F908F9060
:1008E0007F905F904F90089581E090E00895569A30
:1008F00008956F927F928F92CF92DF92EF92FF9244
:100900000F931F93CF93DF93CDB7DEB762970FB6E8
:10091000F894DEBF0FBECDBF6C017A013801822E84
:10092000DC011C962C91CA0157FF04C08827992727
:10093000841B950B7A8369839C838B839E838D8331
:100940006D867E868F86213049F5CE0101960E9404
:10095000D60183E0888B1A8A198AF7FE02C08DEFD0
:10096000888BD601ED91FC910684F785E02DBE01C0
:100970006F5F7F4FC601099562960FB6F894DEBF90
:100980000FBECDBFDF91CF911F910F91FF90EF90E0
:10099000DF90CF908F907F906F9008951C861B867C
:1009A0001A86198618861F82D4CFEF92FF920F9372
:1009B0001F93CF93DF93CDB7DEB762970FB6F8944E
:1009C000DEBF0FBECDBF7C01DC011C968C917A830B
:1009D00069835C834B835E834D830D871E872F87DE
:1009E0008130F9F4CE0101960E94D601188A1A8A44
:1009F000198AD701ED91FC910684F785E02DBE019F
:100A00006F5F7F4FC701099562960FB6F894DEBFFE
:100A10000FBECDBFDF91CF911F910F91FF90EF904F
:100A200008951C861B861A86198618861F82DECFBB
:100A30004F925F926F927F929F92AF92BF92CF92AE
:100A4000DF92EF92FF920F931F93CF93DF9300D02B
:100A50001F92CDB7DEB747E651E08AE696E07FEF1A
:100A600020E8F22EFA0130E020E08C01020F131F83
:100A7000D8016C91611103C01082118205C06130F0
:100A800009F0B6C01082F182128233962F5F3F4F79
:100A90002031310551F7405D5F4F4096B7E08A360F
:100AA0009B0701F7D09012088091150890911608C5
:100AB000A0911708B0911808892B8A2B8B2BD9F09D
:100AC0000E946B0000914401109145012091460164
:100AD00030914701601B710B820B930B009115083D
:100AE00010911608209117083091180860177107A7
:100AF00082079307C8F20E946B00609344017093D1
:100B000045018093460190934701E0911D08F091C3
:100B10001E08309759F04091190850911A086091B9
:100B20001B0870911C088D2D0995D82EE090650149
:100B3000F09066014D2C512C712C612CE114F104C4
:100B400009F45BC0F701C4848091130890911408E4
:100B50008436910508F41486D701ED91FC91A280AA
:100B6000B38019821A821B82DD2079F1F701369653
:100B700010E000E02191222319F19280992001F1E7
:100B800030E050E040E02F5F3F4F4F4F5F4FC301D9
:100B9000B2010E94B60A9B01AC01892D90E0B0E041
:100BA000A0E0BC01CD016F5F7F4F8F4F9F4F0E9430
:100BB000B60AA1E0B0E0AC0FBD1FA00FB11F8C932F
:100BC0000F5F1F4F03301105A9F609811A812B8190
:100BD000F7014585568562817381C701F501099545
:100BE000D7011C96CC921C971496ED90FC90A6CF42
:100BF000623009F04ACF708340CF809142019091DA
:100C000043019C012F5F3F4F3093430120934201EA
:100C100049970CF44AC08FB7F89420916D07309132
:100C20006E0740916F07509170078FBF80913E0112
:100C300090913F01A0914001B0914101281B390BD7
:100C40004A0B5B0B21F421E030E040E050E0E09102
:100C50004201F091430188EE93E0E89FB001E99FE3
:100C6000700DF89F700D1124072E000C880B990B46
:100C70000E94850A309314082093130810924301B0
:100C8000109242012FB7F89480916D0790916E07F2
:100C9000A0916F07B09170072FBF80933E01909392
:100CA0003F01A0934001B09341010F900F900F902E
:100CB000DF91CF911F910F91FF90EF90DF90CF9038
:100CC000BF90AF909F907F906F905F904F900895EE
:100CD00090E080E00895FC018585968508950F9346
:100CE0001F93CF93DF9300D01F92CDB7DEB7AB0138
:100CF00019821A821B82DC01ED91FC910190F08136
:100D0000E02D00E010E020E0BE016F5F7F4F09950D
:100D10000F900F900F90DF91CF911F910F91089539
:100D20000E94FB0ACF92DF92EF92FF9280E1C82EE1
:100D3000D12CE12CF12C0E94FB09A70196010E9405
:100D4000530A609368040E94FB09A70196010E9460
:100D5000530A60936704E091680480E1E89FF00122
:100D60001124E659F94FE60FF11D80818111E3CF7F
:100D700082E08083FF90EF90DF90CF9008951F92E4
:100D80000F920FB60F9211242F933F938F939F933F
:100D9000AF93BF9380916D0790916E07A0916F07FD
:100DA000B091700730916C0723E0230F2D3758F571
:100DB0000196A11DB11D20936C0780936D07909340
:100DC0006E07A0936F07B0937007809171079091A1
:100DD0007207A0917307B09174070196A11DB11D10
:100DE0008093710790937207A0937307B093740771
:100DF000BF91AF919F918F913F912F910F900FBE17
:100E00000F901F90189526E8230F0296A11DB11D83
:100E1000D2CF1F920F920FB60F9211242F933F93B0
:100E20004F935F936F937F938F939F93AF93BF93F2
:100E3000EF93FF9385E797E00E944701FF91EF91C1
:100E4000BF91AF919F918F917F916F915F914F91E2
:100E50003F912F910F900FBE0F901F9018951F92EA
:100E60000F920FB60F9211242F938F939F93EF93AE
:100E7000FF93E0918507F09186078081E0918B07D1
:100E8000F0918C0782FD1BC0908180918E078F5F4F
:100E90008F7320918F07821741F0E0918E07F0E069
:100EA000EB58F84F958F80938E07FF91EF919F91AC
:100EB0008F912F910F900FBE0F901F9018958081EA
:100EC000F4CFE5E7F7E01382128288EE93E0A0E02A
:100ED000B0E084839583A683B7838FE291E091830A
:100EE000808385EC90E09587848784EC90E09787F9
:100EF000868780EC90E0918B808B81EC90E0938BE7
:100F0000828B82EC90E0958B848B86EC90E0978BC3
:100F1000868B118E128E138E148EE2E1F8E08FEF25
:100F2000808312821182148613868FEF9FEFDC017B
:100F300087839087A187B2870895789484B582606B
:100F400084BD84B5816084BD85B5826085BD85B56D
:100F5000816085BD80916E00816080936E001092EB
:100F60008100809181008260809381008091810066
:100F700081608093810080918000816080938000F7
:100F80008091B10084608093B1008091B000816055
:100F90008093B00080917A00846080937A00809181
:100FA0007A00826080937A0080917A0081608093D9
:100FB0007A0080917A00806880937A001092C10054
:100FC000E0918507F091860782E08083E0918107B8
:100FD000F09182071082E0918307F09184078FECF3
:100FE000808310928D07E0918907F0918A0786E04F
:100FF0008083E0918707F0918807808180618083FA
:10100000E0918707F0918807808188608083E09174
:101010008707F0918807808180688083E091870747
:10102000F091880780818F7D808380915D0181119F
:1010300045C010924F0110924E018FEF80935201E4
:1010400080935301809354018093550180935601FE
:101050008093570181E08093580110925A011092B9
:1010600059011092510110925001809165019091A7
:101070006601892B31F48CE491E0909366018093B2
:101080006501E0914A01F0914B01309721F08CE429
:1010900091E0958384838CE491E090934B0180935D
:1010A0004A0110925C0110925B018BE191E09093F8
:1010B0004D0180934C0181E080935D01569A87E653
:1010C00091E090934F0180934E0180E091E09093E6
:1010D0005A01809359018091150890911608A091AA
:1010E0001708B0911808843C29E09207A105B105C2
:1010F00020F484EC99E0A0E0B0E080931508909390
:101100001608A0931708B09318088FEF8093520128
:1011100080EB8093530180EF809354018AEF80939A
:101120001208C0916501D0916601209789F08A81EB
:101130009B81009749F02D853E85B901660F771F89
:10114000620F731F0E945F000C80DD81C02DEDCF08
:101150008AE696E030E020E0FC01E20FF31F108207
:101160002F5F3F4F20313105B9F74096C7E08A36EF
:101170009C0781F72091000130E090916904CAE654
:10118000D4E0AAE6B5E088E058E041E0BD016A5647
:1011900075406217730754F45D938993E82FF0E06C
:1011A000E651F94F40838F5F90E0F0CF9093690450
:1011B0000E9492060E94180501E082E0F82E90E05D
:1011C000C92E90E0D92E11E080916B07882349F059
:1011D000809100018F5F8093000110926B070E9445
:1011E000920640916A054031C8F450916A0450312A
:1011F000A8F42091000130E0EBE6F5E081E090E01A
:10120000821793076CF46191461306C0DC01A6595E
:10121000BB4F6C91561711F00196F2CF10936A07ED
:1012200080916A07811188C04091000150E0FA0165
:10123000E659FA4FDA01A659BB4F31971197CF0102
:101240008A569540181619065CF4CF010197EC01F7
:1012500088818083CD010197EC0188818C93EDCF4B
:101260009091690480916A048F5F992329F09230EC
:10127000E1F580916A04815080936A04809168044A
:101280006091670490916A05981306C090916A0472
:10129000961302C010936B072AE636E0F0E0E0E018
:1012A000D901AE0FBF1F1C923196E031F105C1F795
:1012B000205F3F4FD7E02A363D0781F7AAE6B4E02A
:1012C000EAE6F5E09F012A56354024173507D4F4A5
:1012D00091917D91C0E19C9F900111242659394F35
:1012E000270F311DE9010883EDCF80916A05933006
:1012F00021F48F5F80936A05C1CF913009F0BECF92
:101300008150F8CFD0E18D9FC00111248659994FAB
:10131000860F911DFC01F0820E9418050E9490002A
:10132000C114D10409F450CF0E943301882309F479
:101330004BCF0E94000048CF8AE696E030E020E0E4
:10134000FC01E20FF31F10822F5F3F4F2031310568
:10135000B9F74096F7E08A369F0781F7DDCF8F9285
:101360009F92AF92BF92CF92DF92EF92FF92CF9374
:10137000DF93EC01688179818A819B816115710518
:101380008105910521F464E279ED8BE597E02DE18B
:1013900033EF41E050E00E94530A49015A019B019A
:1013A000AC01A7EAB1E40E94720A6B017C01ACEEC9
:1013B000B4EFA50194010E94800AC60ED71EE81E54
:1013C000F91EF7FE06C081E0C81AD108E10880E8DE
:1013D000F80AC882D982EA82FB82C701B6019F77E8
:1013E000DF91CF91FF90EF90DF90CF90BF90AF90C3
:1013F0009F908F9008958F929F92AF92BF92CF92BD
:10140000DF92EF92FF926091010170910201809151
:10141000030190910401611571058105910521F485
:1014200064E279ED8BE597E02DE133EF41E050E0A8
:101430000E94530A49015A019B01AC01A7EAB1E499
:101440000E94720A6B017C01ACEEB4EFA50194011D
:101450000E94800AC60ED71EE81EF91EF7FE06C0BF
:1014600081E0C81AD108E10880E8F80AC0920101B9
:10147000D0920201E0920301F0920401C701B6018B
:101480009F77FF90EF90DF90CF90BF90AF909F90AD
:101490008F9008956093010170930201809303017E
:1014A000909304010895052E97FB1EF400940E946A
:1014B0006A0A57FD07D00E94850A07FC03D04EF444
:1014C0000C946A0A50954095309521953F4F4F4FA7
:1014D0005F4F089590958095709561957F4F8F4FE0
:1014E0009F4F08950E94A70AA59F900DB49F900D4D
:1014F000A49F800D911D11240895B7FF0C94720ACA
:101500000E94720A821B930B0895A1E21A2EAA1B55
:10151000BB1BFD010DC0AA1FBB1FEE1FFF1FA217A3
:10152000B307E407F50720F0A21BB30BE40BF50BA0
:10153000661F771F881F991F1A9469F76095709529
:10154000809590959B01AC01BD01CF010895A29FAC
:10155000B001B39FC001A39F700D811D1124911D87
:10156000B29F700D811D1124911D0895DB018F9391
:101570009F930E94720ABF91AF91A29F800D911D0F
:10158000A39F900DB29F900D1124089597FB072EF5
:1015900016F4009407D077FD09D00E94E10A07FCF9
:1015A00005D03EF4909581959F4F08957095619573
:1015B0007F4F08950E94A70AB7FF0895821B930BDF
:1015C0000895AA1BBB1B51E107C0AA1FBB1FA6178A
:1015D000B70710F0A61BB70B881F991F5A95A9F7DC
:1015E00080959095BC01CD010895EE0FFF1F0590E9
:1015F000F491E02D099481E090E0F8940C94000BB4
:10160000F894FFCF03010000000000000090069056
:101610000690066F066B067404680600000000D58D
:1016200004790477046F066B067404C60013020085
:101630000000006901C900F600B601270105011983
:021640000100A7
:107E0000112484B714BE81FFF0D085E080938100F7
:107E100082E08093C00088E18093C10086E0809377
:107E2000C20080E18093C4008EE0C9D0259A86E02C
:107E300020E33CEF91E0309385002093840096BBD3
:107E4000B09BFECF1D9AA8958150A9F7CC24DD24C4
:107E500088248394B5E0AB2EA1E19A2EF3E0BF2EE7
:107E6000A2D0813461F49FD0082FAFD0023811F036
:107E7000013811F484E001C083E08DD089C08234E0
:107E800011F484E103C0853419F485E0A6D080C0E4
:107E9000853579F488D0E82EFF2485D0082F10E0AE
:107EA000102F00270E291F29000F111F8ED06801E7
:107EB0006FC0863521F484E090D080E0DECF843638
:107EC00009F040C070D06FD0082F6DD080E0C81688
:107ED00080E7D80618F4F601B7BEE895C0E0D1E017
:107EE00062D089930C17E1F7F0E0CF16F0E7DF06D8
:107EF00018F0F601B7BEE89568D007B600FCFDCFD4
:107F0000A601A0E0B1E02C9130E011968C91119780
:107F100090E0982F8827822B932B1296FA010C0160
:107F200087BEE89511244E5F5F4FF1E0A038BF0790
:107F300051F7F601A7BEE89507B600FCFDCF97BE46
:107F4000E89526C08437B1F42ED02DD0F82E2BD052
:107F50003CD0F601EF2C8F010F5F1F4F84911BD097
:107F6000EA94F801C1F70894C11CD11CFA94CF0C13
:107F7000D11C0EC0853739F428D08EE10CD085E9AC
:107F80000AD08FE07ACF813511F488E018D01DD067
:107F900080E101D065CF982F8091C00085FFFCCF94
:107FA0009093C60008958091C00087FFFCCF809118
:107FB000C00084FD01C0A8958091C6000895E0E648
:107FC000F0E098E1908380830895EDDF803219F02E
:107FD00088E0F5DFFFCF84E1DECF1F93182FE3DFCA
:107FE0001150E9F7F2DF1F91089580E0E8DFEE27F6
:047FF000FF270994CA
:027FFE00040479
:00000001FF
