:020000040000FA
:100000000C9462000C948A000C948A000C948A0070
:100010000C948A000C948A000C948A000C948A0038
:100020000C948A000C948A000C948A000C948A0028
:100030000C948A000C948A000C948A000C948A0018
:100040000C945D070C948A000C94CD070C94A707C0
:100050000C948A000C948A000C948A000C948A00F8
:100060000C948A000C948A000000000025002800EF
:100070002B0000000000240027002A0000000000E0
:1000800023002600290004040404040404040202DA
:100090000202020203030303030301020408102007
:1000A0004080010204081020010204081020000012
:1000B0000008000201000003040700000000000027
:1000C0000000FF0711241FBECFEFD8E0DEBFCDBF79
:1000D00011E0A0E0B1E0EEEBF8E102C005900D9276
:1000E000AE33B107D9F728E0AEE3B1E001C01D920D
:1000F000AE31B207E1F710E0C2E6D0E004C02197CC
:10010000FE010E94520CC136D107C9F70E943B087C
:100110000C945D0C0C94000020E0DC0160FF03C037
:1001200001C02D932D936250E0F77040D0F70895F1
:1001300090E0FC01E255FF4F2491FC01E656FF4F91
:100140003491FC01EA57FF4FE491EE23C1F12223E1
:1001500039F02330E9F090F4213001F1223011F12F
:10016000F0E0EE0FFF1FE458FF4FA591B491EC9122
:10017000E32381E090E029F580E008952730A9F09D
:100180002830C9F0243061F7809180008F7D03C052
:10019000809180008F7780938000E2CF84B58F7745
:1001A00084BDDECF84B58F7DFBCF8091B0008F778B
:1001B0008093B000D5CF8091B0008F7DF9CF80E0E3
:1001C00090E00895CF93DF9390E0FC01E656FF4F57
:1001D00024918A579F4FFC0184918823C9F090E0B5
:1001E000880F991FFC01EE58FF4FA591B491FC01B7
:1001F000E859FF4FC591D49161110DC09FB7F89494
:100200008C91209582238C938881282328839FBFFB
:10021000DF91CF910895623051F49FB7F8943C91EB
:10022000822F809583238C93E8812E2BEFCF8FB77D
:10023000F894EC912E2B2C938FBFEACF3FB7F89414
:100240008091700790917107A0917207B091730728
:1002500026B5A89B05C02F3F19F00196A11DB11D21
:100260003FBFBA2FA92F982F8827BC01CD01620F5D
:10027000711D811D911D42E0660F771F881F991F18
:100280004A95D1F7089580E991E00895AF92BF9221
:10029000CF92DF92EF92FF920F931F93CF93DF9352
:1002A0006C017B018B01040F151FEB015E01AE1881
:1002B000BF08C017D10759F06991D601ED91FC91A3
:1002C0000190F081E02DC6010995892B79F7C501D0
:1002D000DF91CF911F910F91FF90EF90DF90CF9022
:1002E000BF90AF900895FC01538D448D252F30E0D1
:1002F000842F90E0821B930B541710F0CF96089533
:1003000001970895FC01918D828D981761F0A28D5F
:10031000AE0FBF2FB11D5D968C91928D9F5F9F7325
:10032000928F90E008958FEF9FEF0895FC01918DDB
:10033000828D981731F0828DE80FF11D858D90E048
:1003400008958FEF9FEF0895FC01918D228D892FE5
:1003500090E0805C9F4F821B91098F7399270895CD
:1003600084E797E00E94A40121E0892B09F420E0B2
:10037000822F089580E090E0892B29F00E94B0013F
:1003800081110C9400000895FC01A48DA80FB92FD1
:10039000B11DA35ABF4F2C91848D90E001968F73AD
:1003A0009927848FA689B7892C93A089B1898C91CC
:1003B000837080648C93938D848D981306C002881B
:1003C000F389E02D80818F7D80830895EF92FF92E5
:1003D0000F931F93CF93DF93EC0181E0888F9B8D68
:1003E0008C8D98131AC0E889F989808185FF15C022
:1003F0009FB7F894EE89FF896083E889F989808145
:100400008370806480839FBF81E090E0DF91CF9113
:100410001F910F91FF90EF900895F62E0B8D10E035
:100420000F5F1F4F0F731127E02E8C8D8E110CC0A4
:100430000FB607FCFACFE889F989808185FFF5CFEF
:10044000CE010E94C401F1CFEB8DEC0FFD2FF11D09
:10045000E35AFF4FF0829FB7F8940B8FEA89FB892C
:1004600080818062CFCFCF93DF93EC01888D88238A
:10047000B9F0AA89BB89E889F9898C9185FD03C007
:10048000808186FD0DC00FB607FCF7CF8C9185FFEC
:10049000F2CF808185FFEDCFCE010E94C401E9CF6C
:1004A000DF91CF9108950F931F93CF93DF93209106
:1004B00049012F5F322F37703093490120FF2BC045
:1004C00020E831FD2064347009F02062205FFC01D7
:1004D000EC01239600E011E06485662329F070E0CA
:1004E000C8010E94230C6F5F6187322F369F030E75
:1004F00030E0311D1124311110C01682662311F035
:10050000615061873196EC17FD0731F7DF91CF918C
:100510001F910F91089520E0D4CF31503683EECF54
:100520004F925F927F928F929F92AF92BF92CF92A3
:10053000DF92EF92FF920F931F93CF93DF932C01E3
:10054000EB010E941E01F20127853089621B730BAB
:100550006A307105B0F3F8948A819B8118161906E8
:100560000CF0CDC1E881F9816BB1862E689486F8D4
:100570003BB13F7B3BB9DA848F812D2D281B822F25
:100580002F834F85042E000C550BAA81BB817D85DE
:10059000FC84EE847F5FF394E3949E819884B98415
:1005A000AB841181C12C6C2D0C2D2C2D2181112798
:1005B00088942111280F08F42FEF8195889470FDFD
:1005C000120F1795889471FD120F1795889472FD7C
:1005D000120F1795889473FD120F1795889474FD68
:1005E000120F1795889475FD120F1795889476FD54
:1005F000120F1795889477FD120F17958894622F24
:100600007111612F8D0D162F002C8BB800C000C00A
:1006100017FF3BB920816627889400C0002C3BB9A6
:100620002111290F00C0002C8BB800C000C016FF9C
:100630003BB908F42FEF9195889400C0002C3BB98A
:10064000F0FC620F00C0002C8BB800C000C015FF8A
:100650003BB967958894F1FC620F00C0002C3BB950
:100660006795889400C0002C8BB800C000C014FFB0
:100670003BB9F2FC620F6795889400C0002C3BB92F
:10068000F3FC620F00C0002C8BB800C000C013FF49
:100690003BB967958894F4FC620F00C0002C3BB90D
:1006A0006795889400C0002C8BB800C000C012FF72
:1006B0003BB9F5FC620F6795889400C0002C3BB9EC
:1006C000F6FC620F00C0002C8BB800C000C011FF08
:1006D0003BB967958894F7FC620F00C0002C3BB9CA
:1006E0006795889400C0002C8BB800C000C010FF34
:1006F0003BB9122FF110162F9B0D00C0002C3BB9F7
:1007000000C000C0002C8BB800C000C017FF3BB970
:1007100022816627889400C0002C3BB92111290D45
:1007200000C0002C8BB800C000C016FF3BB908F415
:100730002FEFE40FF51F00C0002C3BB9E0FC620F67
:1007400000C0002C8BB800C000C015FF3BB96795F6
:100750008894E1FC620F00C0002C3BB96795889437
:1007600000C0002C8BB800C000C014FF3BB9E2FCF5
:10077000620F6795889400C0002C3BB9E3FC620FC0
:1007800000C0002C8BB800C000C013FF3BB96795B8
:100790008894E4FC620F00C0002C3BB967958894F4
:1007A00000C0002C8BB800C000C012FF3BB9E5FCB4
:1007B000620F6795889400C0002C3BB9E6FC620F7D
:1007C00000C0002C8BB800C000C011FF3BB967957A
:1007D0008894E7FC620F00C0002C3BB967958894B1
:1007E00000C0002C8BB800C000C010FF3BB9122F16
:1007F000E110162F919400C0002C3BB99A0C00C058
:1008000000C08BB800C000C017FF3BB9218166272C
:10081000889400C0002C3BB92111280F00C0002C87
:100820008BB800C000C016FF3BB908F42FEF8195CC
:10083000889400C0002C3BB970FD620F00C0002CF2
:100840008BB800C000C015FF3BB96795889471FD57
:10085000620F00C0002C3BB96795889400C0002C43
:100860008BB800C000C014FF3BB972FD620F6795E2
:10087000889400C0002C3BB973FD620F00C0002CAF
:100880008BB800C000C013FF3BB96795889474FD16
:10089000620F00C0002C3BB96795889400C0002C03
:1008A0008BB800C000C012FF3BB975FD620F6795A1
:1008B000889400C0002C3BB976FD620F00C0002C6C
:1008C0008BB800C000C011FF3BB96795889477FDD5
:1008D000620F00C0002C3BB96795889400C0002CC3
:1008E0008BB800C000C010FF3BB9122F7111162F3A
:1008F0008D0D00C0002C3BB9119709F086CE4A81BE
:100900005B8120EE31E0DA010E94370CDC01CB0183
:10091000F4E0B695A79597958795FA95D1F730E0CD
:1009200020E0B901EAE94E9F040E611D5E9F600D53
:10093000711D1124650F711D860F971FA11DB11D1B
:10094000893E43E09407A105B10508F434C0885EF0
:100950009340A109B10942E0B695A795979587956F
:100960004A95D1F747E0849F080E211D949F200DE2
:10097000311D1124290F311D6091480170E0860F4F
:10098000971F820F931F40916C0750916D076091E4
:100990006E0770916F07292F3327420F531F611D78
:1009A000711D40936C0750936D0760936E077093B1
:1009B0006F078093480178940E941E01F201708BAA
:1009C0006787DF91CF911F910F91FF90EF90DF909C
:1009D000CF90BF90AF909F908F907F905F904F90FF
:1009E000089581E090E00895569A08956F927F925D
:1009F0008F92CF92DF92EF92FF920F931F93CF933C
:100A0000DF93CDB7DEB762970FB6F894DEBF0FBEA7
:100A1000CDBF6C017A013801822EDC011C962C912D
:100A2000CA0157FF04C088279927841B950B7A8336
:100A300069839C838B839E838D836D867E868F8660
:100A4000213049F5CE0101960E94530283E0888B44
:100A50001A8A198AF7FE02C08DEF888BD601ED91B4
:100A6000FC910684F785E02DBE016F5F7F4FC601C4
:100A7000099562960FB6F894DEBF0FBECDBFDF9129
:100A8000CF911F910F91FF90EF90DF90CF908F90BB
:100A90007F906F9008951C861B861A86198618868B
:100AA0001F82D4CFEF92FF920F931F93CF93DF93C8
:100AB000CDB7DEB762970FB6F894DEBF0FBECDBFDD
:100AC0007C01DC011C968C917A8369835C834B8367
:100AD0005E834D830D871E872F878130F9F4CE0109
:100AE00001960E945302188A1A8A198AD701ED9139
:100AF000FC910684F785E02DBE016F5F7F4FC70133
:100B0000099562960FB6F894DEBF0FBECDBFDF9198
:100B1000CF911F910F91FF90EF9008951C861B8637
:100B20001A86198618861F82DECF4F925F926F92C7
:100B30007F929F92AF92BF92CF92DF92EF92FF92FD
:100B40000F931F93CF93DF9300D01F92CDB7DEB7E3
:100B500047E651E089E696E07FEF20E8F22EFA01C1
:100B600030E020E08C01020F131FD8016C9161115D
:100B700003C01082118205C0613009F0B6C0108236
:100B8000F182128233962F5F3F4F2031310551F7AA
:100B9000405D5F4F4096B7E089369B0701F7D090E4
:100BA00011088091140890911508A0911608B09131
:100BB0001708892B8A2B8B2BD9F00E941E010091DC
:100BC0004401109145012091460130914701601B7D
:100BD000710B820B930B0091140810911508209152
:100BE0001608309117086017710782079307C8F23B
:100BF0000E941E0160934401709345018093460159
:100C000090934701E0911C08F0911D08309759F02E
:100C1000409118085091190860911A0870911B08AA
:100C20008D2D0995D82EE0906501F09066014D2C30
:100C3000512C712C612CE114F10409F45BC0F70113
:100C4000C48480911208909113088436910508F4A9
:100C50001486D701ED91FC91A280B38019821A828B
:100C60001B82DD2079F1F701369610E000E021913A
:100C7000222319F19280992001F130E050E040E008
:100C80002F5F3F4F4F4F5F4FC301B2010E94130CC4
:100C90009B01AC01892D90E0B0E0A0E0BC01CD014A
:100CA0006F5F7F4F8F4F9F4F0E94130CA1E0B0E00A
:100CB000AC0FBD1FA00FB11F8C930F5F1F4F0330F0
:100CC0001105A9F609811A812B81F7014585568501
:100CD00062817381C701F5010995D7011C96CC92F9
:100CE0001C971496ED90FC90A6CF623009F04ACF85
:100CF000708340CF80914201909143019C012F5F0E
:100D00003F4F309343012093420149970CF44AC06E
:100D10008FB7F89420916C0730916D0740916E0762
:100D200050916F078FBF80913E0190913F01A0913C
:100D30004001B0914101281B390B4A0B5B0B21F498
:100D400021E030E040E050E0E0914201F0914301C9
:100D500088EE93E0E89FB001E99F700DF89F700D59
:100D60001124072E000C880B990B0E94E20B309384
:100D700013082093120810924301109242012FB7DA
:100D8000F89480916C0790916D07A0916E07B091D7
:100D90006F072FBF80933E0190933F01A0934001C6
:100DA000B09341010F900F900F90DF91CF911F9161
:100DB0000F91FF90EF90DF90CF90BF90AF909F90FA
:100DC0007F906F905F904F90089590E080E008953D
:100DD000FC018585968508950F931F93CF93DF932C
:100DE00000D01F92CDB7DEB7AB0119821A821B82E9
:100DF000DC01ED91FC910190F081E02D00E010E02C
:100E000020E0BE016F5F7F4F09950F900F900F900C
:100E1000DF91CF911F910F9108950E94580CCF92AE
:100E2000DF92EF92FF92CF93C0E480E1C82ED12CE5
:100E3000E12CF12C60E08EE00E94E200C0937C0087
:100E400080917A00806480937A0080917A0086FD98
:100E5000FCCF6091780070917900072E000C880B10
:100E6000990B611571058105910511F00E94A70B81
:100E70000E94580BA70196010E94B00B6093680472
:100E80000E94580BA70196010E94B00B6093670463
:100E9000E091680480E1E89FF0011124E759F94FDF
:100EA000E60FF11D80818111C5CF82E08083CF9153
:100EB000FF90EF90DF90CF9008951F920F920FB6A2
:100EC0000F9211242F933F938F939F93AF93BF93D0
:100ED00080916C0790916D07A0916E07B0916F079C
:100EE00030916B0723E0230F2D3758F50196A11D94
:100EF000B11D20936B0780936C0790936D07A093AF
:100F00006E07B0936F078091700790917107A09161
:100F10007207B09173070196A11DB11D80937007F0
:100F200090937107A0937207B0937307BF91AF912D
:100F30009F918F913F912F910F900FBE0F901F9017
:100F4000189526E8230F0296A11DB11DD2CF1F923E
:100F50000F920FB60F9211242F933F934F935F93ED
:100F60006F937F938F939F93AF93BF93EF93FF9371
:100F700084E797E00E94C401FF91EF91BF91AF9188
:100F80009F918F917F916F915F914F913F912F91A1
:100F90000F900FBE0F901F9018951F920F920FB6D3
:100FA0000F9211242F938F939F93EF93FF93E091D0
:100FB0008407F09185078081E0918A07F0918B0783
:100FC00082FD1BC0908180918D078F5F8F73209170
:100FD0008E07821741F0E0918D07F0E0EC58F84F52
:100FE000958F80938D07FF91EF919F918F912F9116
:100FF0000F900FBE0F901F9018958081F4CFE4E7FB
:10100000F7E01382128288EE93E0A0E0B0E08483E0
:101010009583A683B7838FE291E09183808385ECEB
:1010200090E09587848784EC90E09787868780ECB2
:1010300090E0918B808B81EC90E0938B828B82ECA3
:1010400090E0958B848B86EC90E0978B868B118E4D
:10105000128E138E148EE1E1F8E08FEF80831282FE
:101060001182148613868FEF9FEFDC0187839087B0
:10107000A187B2870895789484B5826084BD84B5D1
:10108000816084BD85B5826085BD85B5816085BD83
:1010900080916E00816080936E001092810080913B
:1010A00081008260809381008091810081608093C3
:1010B0008100809180008160809380008091B100E8
:1010C00084608093B1008091B00081608093B00013
:1010D00080917A00846080937A0080917A008260A7
:1010E00080937A0080917A00816080937A00809169
:1010F0007A00806880937A001092C10060E082E0FC
:101100000E94E20060E084E00E94E20060E085E08E
:101110000E94E20060E083E00E94E20062E082E080
:101120000E94E20062E083E00E94E20062E084E06C
:101130000E94E20062E085E00E94E200E091840704
:10114000F091850782E08083E0918007F09181072C
:101150001082E0918207F09183078FEC80831092D8
:101160008C07E0918807F091890786E08083E09101
:101170008607F0918707808180618083E0918607F0
:10118000F0918707808188608083E0918607F091E5
:101190008707808180688083E0918607F0918707C8
:1011A00080818F7D808380915D01811145C0109287
:1011B0004F0110924E018FEF8093520180935301A3
:1011C0008093540180935501809356018093570179
:1011D00081E08093580110925A01109259011092A7
:1011E0005101109250018091650190916601892B07
:1011F00031F48CE491E09093660180936501E09175
:101200004A01F0914B01309721F08CE491E09583F5
:1012100084838CE491E090934B0180934A01109277
:101220005C0110925B018BE191E090934D01809302
:101230004C0181E080935D01569A87E691E090939E
:101240004F0180934E0180E091E090935A0180938A
:1012500059018091140890911508A0911608B09139
:101260001708843C29E09207A105B10520F484EC1D
:1012700099E0A0E0B0E08093140890931508A09343
:101280001608B09317088FEF8093520180EB80937C
:10129000530180EF809354018AEF80931108C0912D
:1012A0006501D0916601209789F08A819B81009722
:1012B00049F02D853E85B901660F771F620F731FB8
:1012C0000E948C000C80DD81C02DEDCF89E696E078
:1012D00030E020E0FC01E20FF31F10822F5F3F4F50
:1012E00020313105B9F7409637E08936930781F709
:1012F0002091000130E090916A07C9E6D4E0A9E6A8
:10130000B5E088E055E041E0BD01695675406217DF
:10131000730754F45D938993E82FF0E0E754F94F95
:1013200040838F5F90E0F0CF90936A070E940F0791
:101330000E94950501E084EFC82EDD24D394E12CB2
:10134000F12C90E0A92E90E0B92E11E082E00E94ED
:101350009800892B09F04CC080916A07823009F40B
:1013600047C010926A072FB7F89460916C0770918C
:101370006D0780916E0790916F072FBFA7019601AF
:101380000E94E20B672B682B692B09F026C1909114
:1013900069058091680498130DC09091690480914B
:1013A0006704981307C0809100018F5F809300014C
:1013B0000E940F0740916905403108F03FC05091ED
:1013C00069045031D8F52091000130E0EAE6F5E0FB
:1013D00081E090E0821793079CF56191461306C067
:1013E000DC01A759BB4F6C91561741F10196F2CF22
:1013F00083E00E949800892B21F480916A07833052
:1014000091F484E00E949800892B81F085E00E948D
:101410009800892B09F0A7CF80916A07813009F4E1
:10142000A2CF83E008C010936A079DCF80916A071E
:10143000882361F382E080936A0795CF1093690750
:10144000809169078111D5C020916A0780910001C0
:1014500090E021114BC0FC01E759FA4FDC01A7597C
:10146000BB4F319711979F0129563540121613062D
:101470006CF49F0121503109E901288120839D01ED
:1014800021503109E90128812C93EBCF2091690487
:1014900021502093690429E636E050E040E0F9014C
:1014A000E40FF51F10824F5F5F4F40315105B9F7D0
:1014B000205F3F4FD7E029363D0779F7A9E6B4E032
:1014C000E9E6F5E09F0129563540281739070CF069
:1014D00073C021914D9150E1259F9001112427590E
:1014E000394F240F311DE9010883ECCF213009F574
:1014F000FC01E759FA4FDC01A759BB4F319711970F
:101500009F0129563540121613066CF49F01215095
:101510003109E901288120839D0121503109E90128
:1015200028812C93EBCF209169052F5F20936905CB
:10153000B2CF2230F9F4FC01E759FA4FDC01A75988
:10154000BB4F319711979F0129563540121613064C
:101550006CF49F0121503109E901288120839D010C
:1015600021503109E90128812C93EBCF20916904A6
:101570002F5F8FCF233009F08ECFFC01E759FA4F50
:10158000DC01A759BB4F319711979F012956354070
:10159000121613066CF49F0121503109E9012881CC
:1015A00020839D0121503109E90128812C93EBCF43
:1015B000209169052150BACF809168042091670479
:1015C000D0E18D9FC00111248759994F820F911D41
:1015D00022E0FC0120830E949505A114B10409F4C6
:1015E000B5CE0E94B001882309F4B0CE0E9400005D
:1015F000ADCE89E696E030E020E0FC01E20FF31F7B
:1016000010822F5F3F4F20313105B9F74096F7E048
:1016100089369F0781F7DFCF8F929F92AF92BF925B
:10162000CF92DF92EF92FF92CF93DF93EC0168812C
:1016300079818A819B81611571058105910521F46C
:1016400064E279ED8BE597E02DE133EF41E050E086
:101650000E94B00B49015A019B01AC01A7EAB1E419
:101660000E94CF0B6B017C01ACEEB4EFA50194019D
:101670000E94DD0BC60ED71EE81EF91EF7FE06C03F
:1016800081E0C81AD108E10880E8F80AC882D98246
:10169000EA82FB82C701B6019F77DF91CF91FF906D
:1016A000EF90DF90CF90BF90AF909F908F90089574
:1016B0008F929F92AF92BF92CF92DF92EF92FF9262
:1016C00060910101709102018091030190910401E8
:1016D000611571058105910521F464E279ED8BE5D1
:1016E00097E02DE133EF41E050E00E94B00B49015B
:1016F0005A019B01AC01A7EAB1E40E94CF0B6B0138
:101700007C01ACEEB4EFA50194010E94DD0BC60E86
:10171000D71EE81EF91EF7FE06C081E0C81AD108E0
:10172000E10880E8F80AC0920101D0920201E0923B
:101730000301F0920401C701B6019F77FF90EF907B
:10174000DF90CF90BF90AF909F908F90089560935F
:1017500001017093020180930301909304010895A5
:10176000052E97FB1EF400940E94C70B57FD07D06F
:101770000E94E20B07FC03D04EF40C94C70B50956B
:101780004095309521953F4F4F4F5F4F089590956D
:101790008095709561957F4F8F4F9F4F08950E9460
:1017A000040CA59F900DB49F900DA49F800D911DDA
:1017B00011240895B7FF0C94CF0B0E94CF0B821B0E
:1017C000930B0895A1E21A2EAA1BBB1BFD010DC0AD
:1017D000AA1FBB1FEE1FFF1FA217B307E407F507E1
:1017E00020F0A21BB30BE40BF50B661F771F881FBD
:1017F000991F1A9469F760957095809590959B0153
:10180000AC01BD01CF010895A29FB001B39FC001FB
:10181000A39F700D811D1124911DB29F700D811D1C
:101820001124911D0895DB018F939F930E94CF0B8C
:10183000BF91AF91A29F800D911DA39F900DB29F6C
:10184000900D1124089597FB072E16F4009407D0ED
:1018500077FD09D00E943E0C07FC05D03EF4909520
:1018600081959F4F0895709561957F4F08950E94CF
:10187000040CB7FF0895821B930B0895AA1BBB1B92
:1018800051E107C0AA1FBB1FA617B70710F0A61B80
:10189000B70B881F991F5A95A9F780959095BC01A1
:1018A000CD010895EE0FFF1F0590F491E02D0994EE
:1018B00081E090E0F8940C945D0CF894FFCF030164
:1018C000000000000000000D070D070D07EC06E802
:1018D00006F104E506000000005205F604F404ECED
:1018E00006E806F1044301900200000000E601460C
:0C18F0000173013302A401820196010083
:107E0000112484B714BE81FFF0D085E080938100F7
:107E100082E08093C00088E18093C10086E0809377
:107E2000C20080E18093C4008EE0C9D0259A86E02C
:107E300020E33CEF91E0309385002093840096BBD3
:107E4000B09BFECF1D9AA8958150A9F7CC24DD24C4
:107E500088248394B5E0AB2EA1E19A2EF3E0BF2EE7
:107E6000A2D0813461F49FD0082FAFD0023811F036
:107E7000013811F484E001C083E08DD089C08234E0
:107E800011F484E103C0853419F485E0A6D080C0E4
:107E9000853579F488D0E82EFF2485D0082F10E0AE
:107EA000102F00270E291F29000F111F8ED06801E7
:107EB0006FC0863521F484E090D080E0DECF843638
:107EC00009F040C070D06FD0082F6DD080E0C81688
:107ED00080E7D80618F4F601B7BEE895C0E0D1E017
:107EE00062D089930C17E1F7F0E0CF16F0E7DF06D8
:107EF00018F0F601B7BEE89568D007B600FCFDCFD4
:107F0000A601A0E0B1E02C9130E011968C91119780
:107F100090E0982F8827822B932B1296FA010C0160
:107F200087BEE89511244E5F5F4FF1E0A038BF0790
:107F300051F7F601A7BEE89507B600FCFDCF97BE46
:107F4000E89526C08437B1F42ED02DD0F82E2BD052
:107F50003CD0F601EF2C8F010F5F1F4F84911BD097
:107F6000EA94F801C1F70894C11CD11CFA94CF0C13
:107F7000D11C0EC0853739F428D08EE10CD085E9AC
:107F80000AD08FE07ACF813511F488E018D01DD067
:107F900080E101D065CF982F8091C00085FFFCCF94
:107FA0009093C60008958091C00087FFFCCF809118
:107FB000C00084FD01C0A8958091C6000895E0E648
:107FC000F0E098E1908380830895EDDF803219F02E
:107FD00088E0F5DFFFCF84E1DECF1F93182FE3DFCA
:107FE0001150E9F7F2DF1F91089580E0E8DFEE27F6
:047FF000FF270994CA
:027FFE00040479
:00000001FF
