:100000000C9462000C948A000C948A000C948A0070
:100010000C948A000C948A000C948A000C948A0038
:100020000C948A000C948A000C948A000C948A0028
:100030000C948A000C948A000C948A000C948A0018
:100040000C945D070C948A000C94CD070C94A707C0
:100050000C948A000C948A000C948A000C948A00F8
:100060000C948A000C948A000000000025002800EF
:100070002B0000000000240027002A0000000000E0
:1000800023002600290004040404040404040202DA
:100090000202020203030303030301020408102007
:1000A0004080010204081020010204081020000012
:1000B0000008000201000003040700000000000027
:1000C0000000FF0711241FBECFEFD8E0DEBFCDBF79
:1000D00011E0A0E0B1E0E6EBF9E102C005900D927D
:1000E000AE33B107D9F728E0AEE3B1E001C01D920D
:1000F000A232B207E1F710E0C2E6D0E004C02197D7
:10010000FE010E94CE0CC136D107C9F70E943B0800
:100110000C94D90C0C94000020E0DC0160FF03C0BB
:1001200001C02D932D936250E0F77040D0F70895F1
:1001300090E0FC01E255FF4F2491FC01E656FF4F91
:100140003491FC01EA57FF4FE491EE23C1F12223E1
:1001500039F02330E9F090F4213001F1223011F12F
:10016000F0E0EE0FFF1FE458FF4FA591B491EC9122
:10017000E32381E090E029F580E008952730A9F09D
:100180002830C9F0243061F7809180008F7D03C052
:10019000809180008F7780938000E2CF84B58F7745
:1001A00084BDDECF84B58F7DFBCF8091B0008F778B
:1001B0008093B000D5CF8091B0008F7DF9CF80E0E3
:1001C00090E00895CF93DF9390E0FC01E656FF4F57
:1001D00024918A579F4FFC0184918823C9F090E0B5
:1001E000880F991FFC01EE58FF4FA591B491FC01B7
:1001F000E859FF4FC591D49161110DC09FB7F89494
:100200008C91209582238C938881282328839FBFFB
:10021000DF91CF910895623051F49FB7F8943C91EB
:10022000822F809583238C93E8812E2BEFCF8FB77D
:10023000F894EC912E2B2C938FBFEACF3FB7F89414
:100240008091740790917507A0917607B091770718
:1002500026B5A89B05C02F3F19F00196A11DB11D21
:100260003FBFBA2FA92F982F8827BC01CD01620F5D
:10027000711D811D911D42E0660F771F881F991F18
:100280004A95D1F7089580E991E00895AF92BF9221
:10029000CF92DF92EF92FF920F931F93CF93DF9352
:1002A0006C017B018B01040F151FEB015E01AE1881
:1002B000BF08C017D10759F06991D601ED91FC91A3
:1002C0000190F081E02DC6010995892B79F7C501D0
:1002D000DF91CF911F910F91FF90EF90DF90CF9022
:1002E000BF90AF900895FC01538D448D252F30E0D1
:1002F000842F90E0821B930B541710F0CF96089533
:1003000001970895FC01918D828D981761F0A28D5F
:10031000AE0FBF2FB11D5D968C91928D9F5F9F7325
:10032000928F90E008958FEF9FEF0895FC01918DDB
:10033000828D981731F0828DE80FF11D858D90E048
:1003400008958FEF9FEF0895FC01918D228D892FE5
:1003500090E0805C9F4F821B91098F7399270895CD
:1003600088E797E00E94A40121E0892B09F420E0AE
:10037000822F089580E090E0892B29F00E94B0013F
:1003800081110C9400000895FC01A48DA80FB92FD1
:10039000B11DA35ABF4F2C91848D90E001968F73AD
:1003A0009927848FA689B7892C93A089B1898C91CC
:1003B000837080648C93938D848D981306C002881B
:1003C000F389E02D80818F7D80830895EF92FF92E5
:1003D0000F931F93CF93DF93EC0181E0888F9B8D68
:1003E0008C8D98131AC0E889F989808185FF15C022
:1003F0009FB7F894EE89FF896083E889F989808145
:100400008370806480839FBF81E090E0DF91CF9113
:100410001F910F91FF90EF900895F62E0B8D10E035
:100420000F5F1F4F0F731127E02E8C8D8E110CC0A4
:100430000FB607FCFACFE889F989808185FFF5CFEF
:10044000CE010E94C401F1CFEB8DEC0FFD2FF11D09
:10045000E35AFF4FF0829FB7F8940B8FEA89FB892C
:1004600080818062CFCFCF93DF93EC01888D88238A
:10047000B9F0AA89BB89E889F9898C9185FD03C007
:10048000808186FD0DC00FB607FCF7CF8C9185FFEC
:10049000F2CF808185FFEDCFCE010E94C401E9CF6C
:1004A000DF91CF9108950F931F93CF93DF93209106
:1004B00049012F5F322F37703093490120FF2BC045
:1004C00020E831FD2064347009F02062205FFC01D7
:1004D000EC01239600E011E06485662329F070E0CA
:1004E000C8010E949F0C6F5F6187322F369F030EF9
:1004F00030E0311D1124311110C01682662311F035
:10050000615061873196EC17FD0731F7DF91CF918C
:100510001F910F91089520E0D4CF31503683EECF54
:100520004F925F927F928F929F92AF92BF92CF92A3
:10053000DF92EF92FF920F931F93CF93DF932C01E3
:10054000EB010E941E01F20127853089621B730BAB
:100550006A307105B0F3F8948A819B8118161906E8
:100560000CF0CDC1E881F9816BB1862E689486F8D4
:100570003BB13F7B3BB9DA848F812D2D281B822F25
:100580002F834F85042E000C550BAA81BB817D85DE
:10059000FC84EE847F5FF394E3949E819884B98415
:1005A000AB841181C12C6C2D0C2D2C2D2181112798
:1005B00088942111280F08F42FEF8195889470FDFD
:1005C000120F1795889471FD120F1795889472FD7C
:1005D000120F1795889473FD120F1795889474FD68
:1005E000120F1795889475FD120F1795889476FD54
:1005F000120F1795889477FD120F17958894622F24
:100600007111612F8D0D162F002C8BB800C000C00A
:1006100017FF3BB920816627889400C0002C3BB9A6
:100620002111290F00C0002C8BB800C000C016FF9C
:100630003BB908F42FEF9195889400C0002C3BB98A
:10064000F0FC620F00C0002C8BB800C000C015FF8A
:100650003BB967958894F1FC620F00C0002C3BB950
:100660006795889400C0002C8BB800C000C014FFB0
:100670003BB9F2FC620F6795889400C0002C3BB92F
:10068000F3FC620F00C0002C8BB800C000C013FF49
:100690003BB967958894F4FC620F00C0002C3BB90D
:1006A0006795889400C0002C8BB800C000C012FF72
:1006B0003BB9F5FC620F6795889400C0002C3BB9EC
:1006C000F6FC620F00C0002C8BB800C000C011FF08
:1006D0003BB967958894F7FC620F00C0002C3BB9CA
:1006E0006795889400C0002C8BB800C000C010FF34
:1006F0003BB9122FF110162F9B0D00C0002C3BB9F7
:1007000000C000C0002C8BB800C000C017FF3BB970
:1007100022816627889400C0002C3BB92111290D45
:1007200000C0002C8BB800C000C016FF3BB908F415
:100730002FEFE40FF51F00C0002C3BB9E0FC620F67
:1007400000C0002C8BB800C000C015FF3BB96795F6
:100750008894E1FC620F00C0002C3BB96795889437
:1007600000C0002C8BB800C000C014FF3BB9E2FCF5
:10077000620F6795889400C0002C3BB9E3FC620FC0
:1007800000C0002C8BB800C000C013FF3BB96795B8
:100790008894E4FC620F00C0002C3BB967958894F4
:1007A00000C0002C8BB800C000C012FF3BB9E5FCB4
:1007B000620F6795889400C0002C3BB9E6FC620F7D
:1007C00000C0002C8BB800C000C011FF3BB967957A
:1007D0008894E7FC620F00C0002C3BB967958894B1
:1007E00000C0002C8BB800C000C010FF3BB9122F16
:1007F000E110162F919400C0002C3BB99A0C00C058
:1008000000C08BB800C000C017FF3BB9218166272C
:10081000889400C0002C3BB92111280F00C0002C87
:100820008BB800C000C016FF3BB908F42FEF8195CC
:10083000889400C0002C3BB970FD620F00C0002CF2
:100840008BB800C000C015FF3BB96795889471FD57
:10085000620F00C0002C3BB96795889400C0002C43
:100860008BB800C000C014FF3BB972FD620F6795E2
:10087000889400C0002C3BB973FD620F00C0002CAF
:100880008BB800C000C013FF3BB96795889474FD16
:10089000620F00C0002C3BB96795889400C0002C03
:1008A0008BB800C000C012FF3BB975FD620F6795A1
:1008B000889400C0002C3BB976FD620F00C0002C6C
:1008C0008BB800C000C011FF3BB96795889477FDD5
:1008D000620F00C0002C3BB96795889400C0002CC3
:1008E0008BB800C000C010FF3BB9122F7111162F3A
:1008F0008D0D00C0002C3BB9119709F086CE4A81BE
:100900005B8120EE31E0DA010E94B30CDC01CB0107
:10091000F4E0B695A79597958795FA95D1F730E0CD
:1009200020E0B901EAE94E9F040E611D5E9F600D53
:10093000711D1124650F711D860F971FA11DB11D1B
:10094000893E43E09407A105B10508F434C0885EF0
:100950009340A109B10942E0B695A795979587956F
:100960004A95D1F747E0849F080E211D949F200DE2
:10097000311D1124290F311D6091480170E0860F4F
:10098000971F820F931F40917007509171076091DC
:10099000720770917307292F3327420F531F611D70
:1009A000711D4093700750937107609372077093A5
:1009B00073078093480178940E941E01F201708BA6
:1009C0006787DF91CF911F910F91FF90EF90DF909C
:1009D000CF90BF90AF909F908F907F905F904F90FF
:1009E000089581E090E00895569A08956F927F925D
:1009F0008F92CF92DF92EF92FF920F931F93CF933C
:100A0000DF93CDB7DEB762970FB6F894DEBF0FBEA7
:100A1000CDBF6C017A013801822EDC011C962C912D
:100A2000CA0157FF04C088279927841B950B7A8336
:100A300069839C838B839E838D836D867E868F8660
:100A4000213049F5CE0101960E94530283E0888B44
:100A50001A8A198AF7FE02C08DEF888BD601ED91B4
:100A6000FC910684F785E02DBE016F5F7F4FC601C4
:100A7000099562960FB6F894DEBF0FBECDBFDF9129
:100A8000CF911F910F91FF90EF90DF90CF908F90BB
:100A90007F906F9008951C861B861A86198618868B
:100AA0001F82D4CFEF92FF920F931F93CF93DF93C8
:100AB000CDB7DEB762970FB6F894DEBF0FBECDBFDD
:100AC0007C01DC011C968C917A8369835C834B8367
:100AD0005E834D830D871E872F878130F9F4CE0109
:100AE00001960E945302188A1A8A198AD701ED9139
:100AF000FC910684F785E02DBE016F5F7F4FC70133
:100B0000099562960FB6F894DEBF0FBECDBFDF9198
:100B1000CF911F910F91FF90EF9008951C861B8637
:100B20001A86198618861F82DECF4F925F926F92C7
:100B30007F929F92AF92BF92CF92DF92EF92FF92FD
:100B40000F931F93CF93DF9300D01F92CDB7DEB7E3
:100B500047E651E08DE696E06FEFFA0130E020E0E5
:100B6000DC01A20FB31F7C91711103C010821182AE
:100B700005C0713009F0B9C0608361831282339679
:100B80002F5F3F4F2031310559F7405D5F4F409651
:100B900027E08D36920709F7D09015088091180844
:100BA00090911908A0911A08B0911B08892B8A2BE3
:100BB0008B2BD9F00E941E01009144011091450138
:100BC0002091460130914701601B710B820B930B02
:100BD000009118081091190820911A0830911B08EB
:100BE0006017710782079307C8F20E941E01609385
:100BF0004401709345018093460190934701E09131
:100C00002008F0912108309759F040911C0850912C
:100C10001D0860911E0870911F088D2D0995D82E12
:100C2000E0906501F09066014D2C512C712C612CE7
:100C3000E114F10409F45EC0D7011C96CC901C9716
:100C400080911608909117088436910510F41C962F
:100C50001C92D701ED91FC91A280B38019821A8277
:100C60001B82DD2079F1F701369610E000E021913A
:100C7000222319F19280992001F130E050E040E008
:100C80002F5F3F4F4F4F5F4FC301B2010E948F0C48
:100C90009B01AC01892D90E0B0E0A0E0BC01CD014A
:100CA0006F5F7F4F8F4F9F4F0E948F0CA1E0B0E08E
:100CB000AC0FBD1FA00FB11F8C930F5F1F4F0330F0
:100CC0001105A9F609811A812B81F7014585568501
:100CD00062817381C701F5010995D7011C96CC92F9
:100CE0001C971496ED90FC90A3CF723009F047CF7B
:100CF00060833DCF80914201909143019C012F5F21
:100D00003F4F309343012093420149970CF44AC06E
:100D10008FB7F89420917007309171074091720756
:100D2000509173078FBF80913E0190913F01A09138
:100D30004001B0914101281B390B4A0B5B0B21F498
:100D400021E030E040E050E0E0914201F0914301C9
:100D500088EE93E0E89FB001E99F700DF89F700D59
:100D60001124072E000C880B990B0E945E0C309307
:100D700017082093160810924301109242012FB7D2
:100D8000F8948091700790917107A0917207B091CB
:100D900073072FBF80933E0190933F01A0934001C2
:100DA000B09341010F900F900F90DF91CF911F9161
:100DB0000F91FF90EF90DF90CF90BF90AF909F90FA
:100DC0007F906F905F904F90089590E080E008953D
:100DD000FC018585968508950F931F93CF93DF932C
:100DE00000D01F92CDB7DEB7AB0119821A821B82E9
:100DF000DC01ED91FC910190F081E02D00E010E02C
:100E000020E0BE016F5F7F4F09950F900F900F900C
:100E1000DF91CF911F910F9108950E94D40CCF9232
:100E2000DF92EF92FF92CF93C0E480E1C82ED12CE5
:100E3000E12CF12C60E08EE00E94E200C0937C0087
:100E400080917A00806480937A0080917A0086FD98
:100E5000FCCF6091780070917900072E000C880B10
:100E6000990B611571058105910511F00E94230C04
:100E70000E94D40BA70196010E942C0C60936C0475
:100E80000E94D40BA70196010E942C0C60936B0466
:100E9000E0916C0480E1E89FF0011124E359F94FDF
:100EA000E60FF11D80818111C5CF82E08083CF9153
:100EB000FF90EF90DF90CF9008951F920F920FB6A2
:100EC0000F9211242F933F938F939F93AF93BF93D0
:100ED0008091700790917107A0917207B09173078C
:100EE00030916F0723E0230F2D3758F50196A11D90
:100EF000B11D20936F078093700790937107A093A3
:100F00007207B09373078091740790917507A09151
:100F10007607B09177070196A11DB11D80937407E4
:100F200090937507A0937607B0937707BF91AF9121
:100F30009F918F913F912F910F900FBE0F901F9017
:100F4000189526E8230F0296A11DB11DD2CF1F923E
:100F50000F920FB60F9211242F933F934F935F93ED
:100F60006F937F938F939F93AF93BF93EF93FF9371
:100F700088E797E00E94C401FF91EF91BF91AF9184
:100F80009F918F917F916F915F914F913F912F91A1
:100F90000F900FBE0F901F9018951F920F920FB6D3
:100FA0000F9211242F938F939F93EF93FF93E091D0
:100FB0008807F09189078081E0918E07F0918F0773
:100FC00082FD1BC09081809191078F5F8F7320916C
:100FD0009207821741F0E0919107F0E0E858F84F4E
:100FE000958F80939107FF91EF919F918F912F9112
:100FF0000F900FBE0F901F9018958081F4CFE8E7F7
:10100000F7E01382128288EE93E0A0E0B0E08483E0
:101010009583A683B7838FE291E09183808385ECEB
:1010200090E09587848784EC90E09787868780ECB2
:1010300090E0918B808B81EC90E0938B828B82ECA3
:1010400090E0958B848B86EC90E0978B868B118E4D
:10105000128E138E148EE5E1F8E08FEF80831282FA
:101060001182148613868FEF9FEFDC0187839087B0
:10107000A187B2870895789484B5826084BD84B5D1
:10108000816084BD85B5826085BD85B5816085BD83
:1010900080916E00816080936E001092810080913B
:1010A00081008260809381008091810081608093C3
:1010B0008100809180008160809380008091B100E8
:1010C00084608093B1008091B00081608093B00013
:1010D00080917A00846080937A0080917A008260A7
:1010E00080937A0080917A00816080937A00809169
:1010F0007A00806880937A001092C10060E082E0FC
:101100000E94E20060E084E00E94E20060E085E08E
:101110000E94E20060E083E00E94E20062E082E080
:101120000E94E20062E083E00E94E20062E084E06C
:101130000E94E20062E085E00E94E200E091880700
:10114000F091890782E08083E0918407F091850720
:101150001082E0918607F09187078FEC80831092D0
:101160009007E0918C07F0918D0786E08083E091F5
:101170008A07F0918B07808180618083E0918A07E4
:10118000F0918B07808188608083E0918A07F091DD
:101190008B07808180688083E0918A07F0918B07BC
:1011A00080818F7D808380915D01811145C0109287
:1011B0004F0110924E018FEF8093520180935301A3
:1011C0008093540180935501809356018093570179
:1011D00081E08093580110925A01109259011092A7
:1011E0005101109250018091650190916601892B07
:1011F00031F48CE491E09093660180936501E09175
:101200004A01F0914B01309721F08CE491E09583F5
:1012100084838CE491E090934B0180934A01109277
:101220005C0110925B018BE191E090934D01809302
:101230004C0181E080935D01569A87E691E090939E
:101240004F0180934E0180E091E090935A0180938A
:1012500059018091180890911908A0911A08B0912D
:101260001B08843C29E09207A105B10520F484EC19
:1012700099E0A0E0B0E08093180890931908A0933B
:101280001A08B0931B088FEF8093520180EB809374
:10129000530180EF809354018AEF80931508C09129
:1012A0006501D0916601209789F08A819B81009722
:1012B00049F02D853E85B901660F771F620F731FB8
:1012C0000E948C000C80DD81C02DEDCF8DE696E074
:1012D00030E020E0FC01E20FF31F10822F5F3F4F50
:1012E00020313105B9F7409637E08D36930781F705
:1012F0002091000130E090916E07CDE6D4E0ADE69C
:10130000B5E088E055E041E0BD016D5675406217DB
:10131000730754F45D938993E82FF0E0E354F94F99
:1013200040838F5F90E0F0CF90936E070E940F078D
:101330000E949505BB24B39484EFC82EDD24D3947A
:10134000E12CF12C00E010E0AA24A39482E00E949A
:101350009800892B09F083C080916E07823009F4D0
:101360007EC010926E072FB7F8946091700770914D
:10137000710780917207909173072FBFA7019601A3
:101380000E945E0C672B682B692B09F0A2C180912B
:101390006E0781118AC080916D0590E090936A0478
:1013A0008093690480916D048150990B9093680437
:1013B0008093670420916C048091690490916A0481
:1013C0002817190681F420916B048091670490918D
:1013D00068042817190639F4809100018F5F809303
:1013E00000010E940F07D0916E07D11182C0809139
:1013F0006D0590E090936A048093690480916D0478
:101400008150990B9093680480936704409169041C
:1014100050916A044031510508F08EC06091670414
:10142000709168046031710508F086C02091000158
:1014300030E0EEE6F5E081E090E0821793070CF0F3
:101440007DC0A191A417150641F4DC01A359BB4F3F
:10145000AC91A617170609F46FC00196EECF83E092
:101460000E949800892B21F480916E07833091F4BB
:1014700084E00E949800892B81F085E00E9498000A
:10148000892B09F070CF80916E07813009F46BCF02
:1014900083E008C0A0926E0766CF80916E07882314
:1014A00061F382E080936E075ECF813061F48091BA
:1014B0006D0590E0019690936A0480936904809191
:1014C0006D0490E073CF823061F480916D0590E0FF
:1014D00090936A048093690480916D0490E0019672
:1014E00065CF833009F066CF80916D058150990BEF
:1014F000E2CF80916D0590E00196D130A9F0D23015
:1015000061F480916D0590E090936A048093690482
:1015100080916D0490E0019675CFD33009F076CFBD
:1015200080916D058150990B90936A0480936904B2
:1015300080916D0490E066CFA0926D0780916D0759
:101540008111D3C08091000190E0D1114BC0FC010A
:10155000E359FA4FDC01A359BB4F319711979F0113
:101560002D563540121613066CF49F012150310997
:10157000E901288120839D0121503109E901288159
:101580002C93EBCF20916D04215020936D042DE618
:1015900036E050E040E0F901E40FF51F10824F5FA4
:1015A0005F4F40315105B9F7205F3F4FD7E02D36EF
:1015B0003D0779F7ADE6B4E0EDE6F5E09F012D5685
:1015C0003540281739070CF073C021914D9150E137
:1015D000259F900111242359394F240F311DE90112
:1015E000B882ECCFD13009F5FC01E359FA4FDC01A8
:1015F000A359BB4F319711979F012D5635401216B5
:1016000013066CF49F0121503109E90128812083E0
:101610009D0121503109E90128812C93EBCF2091C4
:101620006D052F5F20936D05B2CFD230F9F4FC0128
:10163000E359FA4FDC01A359BB4F319711979F0132
:101640002D563540121613066CF49F0121503109B6
:10165000E901288120839D0121503109E901288178
:101660002C93EBCF20916D042F5F8FCFD33009F0F7
:101670008ECFFC01E359FA4FDC01A359BB4F3197E0
:1016800011979F012D563540121613066CF49F01D9
:1016900021503109E901288120839D012150310920
:1016A000E90128812C93EBCF20916D052150BACF11
:1016B00080916C0420916B04D0E18D9FC0011124B6
:1016C0008359994F820F911D22E0FC0120830E94D3
:1016D00095050115110509F439CE0E94B001882342
:1016E00009F434CE0E94000031CE8DE696E030E061
:1016F00020E0FC01E20FF31F10822F5F3F4F2031EB
:101700003105B9F74096F7E08D369F0781F7DFCFB7
:101710008F929F92AF92BF92CF92DF92EF92FF9201
:10172000CF93DF93EC01688179818A819B81611578
:1017300071058105910521F464E279ED8BE597E06F
:101740002DE133EF41E050E00E942C0C49015A0199
:101750009B01AC01A7EAB1E40E944B0C6B017C0138
:10176000ACEEB4EFA50194010E94590CC60ED71E31
:10177000E81EF91EF7FE06C081E0C81AD108E1088C
:1017800080E8F80AC882D982EA82FB82C701B601E2
:101790009F77DF91CF91FF90EF90DF90CF90BF9038
:1017A000AF909F908F9008958F929F92AF92BF922B
:1017B000CF92DF92EF92FF9260910101709102014E
:1017C00080910301909104016115710581059105D6
:1017D00021F464E279ED8BE597E02DE133EF41E010
:1017E00050E00E942C0C49015A019B01AC01A7EA70
:1017F000B1E40E944B0C6B017C01ACEEB4EFA5018F
:1018000094010E94590CC60ED71EE81EF91EF7FE61
:1018100006C081E0C81AD108E10880E8F80AC09241
:101820000101D0920201E0920301F0920401C7018C
:10183000B6019F77FF90EF90DF90CF90BF90AF9071
:101840009F908F900895609301017093020180939F
:101850000301909304010895052E97FB1EF4009454
:101860000E94430C57FD07D00E945E0C07FC03D07A
:101870004EF40C94430C50954095309521953F4F74
:101880004F4F5F4F089590958095709561957F4F6C
:101890008F4F9F4F08950E94800CA59F900DB49F7D
:1018A000900DA49F800D911D11240895B7FF0C94F5
:1018B0004B0C0E944B0C821B930B0895A1E21A2E35
:1018C000AA1BBB1BFD010DC0AA1FBB1FEE1FFF1FE4
:1018D000A217B307E407F50720F0A21BB30BE40B34
:1018E000F50B661F771F881F991F1A9469F760957B
:1018F0007095809590959B01AC01BD01CF01089535
:10190000A29FB001B39FC001A39F700D811D112440
:10191000911DB29F700D811D1124911D0895DB0151
:101920008F939F930E944B0CBF91AF91A29F800D0C
:10193000911DA39F900DB29F900D1124089597FBC8
:10194000072E16F4009407D077FD09D00E94BA0C38
:1019500007FC05D03EF4909581959F4F08957095B2
:1019600061957F4F08950E94800CB7FF0895821BF8
:10197000930B0895AA1BBB1B51E107C0AA1FBB1FF5
:10198000A617B70710F0A61BB70B881F991F5A950B
:10199000A9F780959095BC01CD010895EE0FFF1F2A
:1019A0000590F491E02D099481E090E0F8940C9476
:0619B000D90CF894FFCFF2
:1019B6000301000000000000000D070D070D07ECF5
:1019C60006E806F104E506000000005205F604F4F8
:1019D60004EC06E806F1044301900200000000E66C
:0E19E60001460173013302A401820196010043
:00000001FF
